:10000000C9C10000F8C10000F6C10000F4C1000041
:10001000F2C10000F0C10000EEC10000ECC1000020
:10002000EAC10000E8C10000E6C10000E4C1000030
:10003000E2C10000E0C10000DEC10000DCC1000040
:10004000DAC10000D8C10000D6C10000D4C1000050
:100050000C94CE0CD0C10000CEC100000C945712FD
:10006000CAC100000C94650E0C949B0EC4C1000024
:10007000C2C10000C0C10000BEC10000BCC1000080
:10008000BAC10000B8C10000B6C100000C94A30CB6
:100090000C94100F0C94460FAEC100000C94DD0AB6
:1000A000AAC10000A8C10000A6C10000A4C10000B0
:1000B000A2C10000A0C100009EC100009CC10000C0
:1000C0009AC1000098C1000096C100000C94BB0FBB
:1000D0000C94F10F90C100000C9466100C949C10CD
:1000E0008AC10000AE06B306B006CB06CB06B50645
:1000F000CB06B906CB06CB06CB06B706CB06CB069E
:10010000CB06BD06CB06CB06CB06CB06CB06CB0675
:10011000CB06BB06CB06CB06CB06CB06CB06CB0667
:10012000C0069F13A413A913B313BD133614C7132A
:10013000CF13D713E113EB13F51304140E14361475
:10014000181422142C1457145A1449144D1453140F
:1001500091145E14621468146C14701476147A147A
:100160007E149114841488148C1400000A0B020964
:100170000C0D0E0807030401000000000000000041
:10018000000000000000000000000000000000006F
:10019000000000000000121110000000000000002C
:1001A000000000000000000000000000000000004F
:1001B0000102102020080810204010204080020179
:1001C000020108040201010204081020408080405E
:1001D000201008040201800402018040201008045D
:1001E00002010804020101020408102040800102FB
:1001F00004081020408005050505070508080808C3
:10020000020202020A0A08080404040401010101AE
:1002100001010101030303030303030304070707A9
:100220000C0C0C0C0C0C0C0C02020202060606064E
:10023000060606060B0B0B0B0B0B0B0B000020002E
:100240002300260029002C002F00320000010000AE
:1002500003010601090100002200250028002B00EF
:100260002E003100340002010000050108010B01DD
:1002700000002100240027002A002D003000330058
:1002800001010000040107010A0100407A10F35A3D
:1002900000A0724E18090010A5D4E80000E87648C6
:1002A000170000E40B54020000CA9A3B000000E172
:1002B000F505000080969800000040420F00000005
:1002C000A08601000000102700000000E8030000E5
:1002D00000006400000000000A00000000000100AF
:1002E000000000002C76D888DC674F0823DFC1DFD0
:1002F000AE59E1B1B796E5E3E453C63AE6519976D3
:1003000096E8E6C28426EB898C9B62ED407C6FFC0C
:10031000EFBC9C9F40F2BAA56FA5F490055A2AF74E
:100320005C936B6CF9676DC11BFCE0E40D47FEF557
:1003300020E6B500D0ED902E0300943577050080BF
:10034000841E080000204E0A000000C80C3333331E
:10035000330F986E12831141EF8D2114893BE655BE
:1003600016CFFEE6DB18D1844B381BF77C1D901DA1
:10037000A4BBE424203284725E228100C9F124EC03
:10038000A1E53D278102A508A00CCD0E780F231012
:10039000CE10AB0811241FBECFEFD1E2DEBFCDBF20
:1003A00000E00CBF12E0A0E0B2E0E0E8F8E300E01B
:1003B0000BBF02C007900D92AE38B107D9F726E007
:1003C000AEE8B2E001C01D92AD3BB207E1F713E029
:1003D000C2E9D3E000E006C022970109FE010BBF8D
:1003E0000E947C17C438D10780E00807A9F70E9453
:1003F0004B120C942F1C04CE26E040E855E260E03E
:1004000070E08BE394E00E94030E26E040E855E2A2
:1004100060E070E088ED94E00E94030E26E040E882
:1004200055E260E070E085E795E00E94030E26E06B
:1004300040E855E260E070E082E196E00E94030E41
:10044000E1E8F0E030E130831092800082E08093B8
:10045000380480E197E290933A04809339049093B2
:1004600087008093860082E1808388E196E0909304
:1004700037048093360421E020936F00E1E9F0E037
:100480003083109290002093330480E49FE1909396
:10049000350480933404909397008093960081E113
:1004A000808386E097E09093320480933104209318
:1004B000710066D721D161E08FE30C94CB14809159
:1004C00006028111E5D78091320390913303909316
:1004D00097028093960226D6DED08091590390E051
:1004E0005AD286D0209198023091990240919A0276
:1004F00050919B0260919C0270919D028091070235
:10050000D7C28091AD029091AE029C01369527959D
:100510003093B2022093B10290938F0280938E02A7
:10052000089587E20E940015892B31F48EE10E9424
:100530000015892B09F070C363D3F3CF87E20E94C3
:100540000015892B31F08EE10E940015892B09F4EA
:1005500063C34AD3F3CF60918E0270918F028823D8
:1005600031F081E08093070290D1E8DF05C081E09F
:10057000809307028AD1D5DF10920702089591E097
:100580009093070210925903882319F01092550393
:1005900008959093550308958DE10E940015892BCD
:1005A00031F08DE10E940015892BD9F7C7DF8CE16E
:1005B0000E940015892B31F08CE10E940015892BD7
:1005C000D9F7AFCF08952091410330914203809134
:1005D000A7029091A8028217930748F41092420351
:1005E000109241031092550381E0809359030895BE
:1005F000CF9380915903882391F080914503909186
:100600004603892B61F080919602909197021FD248
:10061000882349F180917103811107C024C081E0D2
:1006200080930702D0DFCF91B7CFC1E0C0931B0307
:100630008091700390DF80915803A1DF81E090E00A
:1006400090939D0280939C028091A202882341F0A6
:1006500010925503C0930702109259031092A20200
:100660001092710316C010920702809119039091A5
:100670001A0380342FE1920738F010921A03109277
:10068000190310921B0305C0019690931A038093DF
:100690001903CF91089588E20E940015892B09F172
:1006A00064E670E080E090E00E94D01288E20E9450
:1006B0000015892B29F06AE070E080E090E0F4CF2B
:1006C0008091590391E0892780935903882349F049
:1006D00090932F03109255031092420310924103FE
:1006E000ADC108950C94C41961E080E40E94CB145C
:1006F00060E081E40C94CB14CF93DF93C0E0D0E0B2
:1007000083E20E940015892B29F080E0E5D1CAEC34
:10071000D8E00FC0C83522E0D2074CF0CE01885592
:1007200092408C34944018F482E3E3D102C082E317
:10073000EFD161E070E080E090E00E94D01221965D
:10074000CA3C88E0D807E4F280E0DF91CF91C4C1D1
:100750000F931F93CF93DF93C4E0D0E0CE010497B3
:10076000C1DF8E010B541D4FF801349791E08111C8
:1007700001C090E09083CE010397B4DFF801339776
:1007800091E0811101C090E09083CE010297AADF31
:10079000F80132978083CE010197A4DFF8013197E9
:1007A0008083CE019FDFF80180832596C836D1056E
:1007B000A9F6DF91CF911F910F91089586E10E94D4
:1007C0000015892BC9F486E10E940015892BA1F43C
:1007D00010921C0384EF91E09093AA028093A902E7
:1007E000809192029091930201968A3F910544F084
:1007F000109293021092920280911C0390E008954F
:100800009093930280939202F7CF0F931F93CF930D
:10081000DF9310E0C0E0D0E001E08091A6028111FA
:100820002DC02196C233D10529F461E082E40E94F3
:10083000CB1411C0C23B8CE0D8076CF060E082E4BE
:100840000E94CB146AE070E080E090E00E94D01239
:100850000093A60211E088E20E940015892B19F08E
:100860000093A60210E0AADF892B09F410E061E0F2
:1008700070E080E090E00E94D012CFCF812F90E016
:10088000DF91CF911F910F910895EF92FF920F93F7
:100890001F93CF93DF937B01882339F0DF91CF91B2
:1008A0001F910F91FF90EF9085C189E20E94001582
:1008B000EC018FE10E9400158C0186E20E94001578
:1008C0002091A402012B21F4CD2B11F4222311F14C
:1008D0002223B1F08091A0029091A1028230910573
:1008E00064F001979093A1028093A00265E070E00C
:1008F00080E090E00E94D012D1CF1092A402CECF1F
:1009000081E08093A40288EC90E09093A102809310
:10091000A002C4CF2091A302892B11F4222341F11C
:100920002223B9F020919E0230919F02223031059E
:100930006CF02150310930939F0220939E0265E0B4
:1009400070E080E090E00E94D0120CC01092A302F0
:1009500009C081E08093A30228EC30E030939F022D
:1009600020939E02C701F7FC01969595879501C0DB
:10097000C701DF91CF911F910F91FF90EF90D7C0EA
:10098000811101C0B1CE60E080E40E94CB1461E02F
:1009900081E40C94CB14892BB1F161E083E40E94D3
:1009A000CB1461E089E30E94CB1480915603882325
:1009B00009F443C02DEC3CEC4CEC5DE36091250365
:1009C0007091260380912703909128030E94DD16E1
:1009D00020E030E048EA51E40E94D91687FD02C0C9
:1009E00083DE02C081E0CCDF6091B3028FE30E941E
:1009F000CB148091A402882319F06091B30201C046
:100A000060E082E418C01092560360E083E40E9424
:100A1000CB1460E089E30E94CB1460E080E40E9484
:100A2000CB1460E081E40E94CB1460E082E40E9479
:100A3000CB1461E08FE30C94CB1408958091A50250
:100A4000811104C085DE81E08093A5020895209184
:100A50009402309195028217930731F0909395029A
:100A60008093940281E0089580E00895813091059B
:100A700019F0029711F00895B7C0C2C081309105F6
:100A800051F08230910561F0892B79F48091AB02AD
:100A90009091AC0208958091AD029091AE020895BC
:100AA0008091AF029091B002089580E090E00895A7
:100AB000CF93C82F811107C0CB01E0DF90938F0245
:100AC00080938E0202C0CA01D1DF60918E027091C4
:100AD0008F028C2FCF91D9CE6FEF70E08DE20E9404
:100AE0007C1361E08FE20E94CB1461E080E30C9400
:100AF000CB14682F772767FD70958DE20E947C13D9
:100B000060E08FE20E94CB1461E080E30C94CB1490
:100B1000682F772767FD70958DE20E947C1361E056
:100B20008FE20E94CB1460E080E30C94CB14CF934F
:100B3000DF93EC018091A60281110BC066DE10925A
:100B400091021092900260E070E08CE20E947C13AF
:100B50002AC081E08093560361E08BE20E94CB14AF
:100B600060E08AE20E94CB14609190027091910241
:100B7000C617D70780F06F5F7F4F70939102609325
:100B800090028CE20E947C1365E070E080E090E0CF
:100B90000E94D01208C0BE018CE20E947C13D09348
:100BA0009102C09390028091900290919102DF9106
:100BB000CF91089580915903811102C01092A6022D
:100BC00081E080931D03109291021092900261E0E7
:100BD0008BE20E94CB1461E08AE20E94CB146FEF9B
:100BE00070E08CE20C947C1360E084E00E94CB14F3
:100BF00061E081E30E94CB1461E08EE20C94CB149F
:100C000061E084E00E94CB1460E081E30E94CB1499
:100C100061E08EE20C94CB1460E084E00E94CB147F
:100C200060E081E30E94CB1460E08EE20C94CB1470
:100C30000F931F93809143039091440301969093E7
:100C4000440380934303209155032223D9F0843633
:100C50009105C4F0809141039091420301969093D5
:100C60004203809341038DE00E94001561E0892BCF
:100C700009F060E08DE00E94CB14109244031092C2
:100C8000430304C060E08DE00E94CB1481E20E9427
:100C9000001521E0892B09F420E02093400382E233
:100CA0000E94001521E0892B09F420E020933F03E6
:100CB00083E20E94001521E0892B09F420E02093B3
:100CC0003E0384E20E94001521E0892B09F420E014
:100CD00020933D0385E20E94001541E0892B09F431
:100CE00040E040933C0380913F0308E0809FC001B7
:100CF0001124887099272091400310E1219F9001D1
:100D0000112420713327822B932B20913E0354E032
:100D1000259F9001112424703327822B932B20913F
:100D20003D0330E0220F331F22703327822B932B99
:100D3000842B9093460380934503209159032111FE
:100D400004C020915703222331F1FC013197EF3188
:100D5000F10508F5EE58FF4F0C94761785E501C0B4
:100D60008BE4C7DE1AC082E3FCCF88E2FACF88E2C8
:100D700005C082E303C08BE401C085E5C9DE0DC078
:100D80000E94A112609338037093390380933A0351
:100D900090933B0302C080E09FDE809138039091E6
:100DA0003903A0913A03B0913B0340913403509131
:100DB0003503609136037091370384179507A607B2
:100DC000B70709F18C019D01041B150B260B370B8E
:100DD000053611052105310570F020911B03211105
:100DE0000AC020913203309133032F5F3F4F30937D
:100DF0003303209332038093340390933503A093FD
:100E00003603B09337031F910F910895CF92DF926D
:100E1000EF92FF920F931F938091300390913103D3
:100E20009C012F5F3F4F309331032093300320917B
:100E30002F032223D1F00296909331038093300345
:100E40008935924094F081E090E02091B302309196
:100E5000B402232B11F080E090E09093B4028093D1
:100E6000B302109231031092300384E40E94001503
:100E700021E0892B09F420E0209320032223B9F0FC
:100E800080911E0390911F03893C910534F40196D3
:100E900090931F0380931E030AC010921F031092A9
:100EA0001E031092200360E084E40E94CB148BE3C5
:100EB0000E945713BC01882777FD8095982F0E94C8
:100EC000291620912B0330912C0340912D03509132
:100ED0002E030E942A156B017C0160932B037093F3
:100EE0002C0380932D0390932E036091290370911E
:100EF0002A036F5F7F4F70932A0360932903643640
:100F0000710564F1882777FD8095982F0E94291636
:100F10009B01AC01C701B6010E948E152AE53FE294
:100F200046E95EE30E94DD16609325037093260375
:100F3000809327039093280301E213E020E043E02D
:100F40000E94801710922B0310922C0310922D03F5
:100F500010922E0310922A03109229031F910F91D1
:100F6000FF90EF90DF90CF90089589E493E00C9488
:100F700047118FE493E00C944711809145039091C1
:100F80004603892B19F482E090E0089581E090E017
:100F90000895FC01DC010D900020E9F7119780E035
:100FA000EA17FB0719F09191890FFACF0895AF92D4
:100FB000BF92DF92EF92FF920F931F93CF93DF9335
:100FC000CDB7DEB76E970FB6F894DEBF0FBECDBFBC
:100FD0005C01D3DFD82E8E010F5F1F4F8EE1F80129
:100FE00011928A95E9F7E0904103F090420382E084
:100FF000898380915903805D8A83F50180818B8389
:1010000081818C8382818D83B70180E090E00E9492
:1010100027162AE037ED43E25CE30E94DD1620E06C
:1010200030E040E452E40E942A150E94F6156E83D7
:10103000C70164E670E00E944017BC0180E090E0C8
:101040000E9427162DEC3CEC4CEC5DE30E94DD1673
:1010500020E030E040E452E40E942A150E94F61598
:101060006F83C7016AE070E00E944017C0968887CE
:1010700080E38D0D898780915803805D8A878AE49B
:101080008B8784E58C8785E48D878BE48E878FE55D
:101090008F8782E5888B89E5898B87E48A8B80E35B
:1010A0008B8B81E38C8B93E59D8B96E39E8B9EE2ED
:1010B0009F8B888FCE0102966CDFA82FA295AF7010
:1010C000B0E0A65FBD4F9C91998F8F70E82FF0E044
:1010D000E65FFD4F80818A8F83E08B8FF80101905E
:1010E0000020E9F7AF0141505109401B510BE0913D
:1010F000D804F091D9040280F381E02DB80188ED85
:1011000094E019956E960FB6F894DEBF0FBECDBF72
:10111000DF91CF911F910F91FF90EF90DF90BF90E3
:10112000AF90089587E30E94001521E0892B09F014
:1011300020E02093580388E30E94001521E0892BCA
:1011400009F020E020935703089569E072E08AE5F2
:1011500093E00C94AF118AE593E00C9447111F9330
:10116000CF93DF9311E088ED94E043D4892B09F409
:101170007EC08091680381110CC069E072E08FE449
:1011800093E00E94AF111093680389EB97E00E94EF
:1011900047128091600381110CC069E072E089E41C
:1011A00093E00E94AF111093600385EB97E00E94DB
:1011B000471288ED94E036D4C82F823011F4109392
:1011C000480380914803882329F06C2F8FE493E033
:1011D0000E940412C330F1F463E672E08FE493E0FE
:1011E0000E941712882369F081E293E0E0DE8AE32F
:1011F0000E94001561E0892B09F060E08AE30E94FB
:10120000CB1469E072E08FE493E00E94C411109265
:10121000480304C0C53111F410934703809147037C
:10122000882329F06C2F89E493E00E940412C431D2
:1012300009F099CFC1E0D0E0BE0189E493E00E94BB
:101240003512FC0160816053CE0101970E94CC19D8
:101250002196CD37D10581F71093060269E072E03F
:1012600089E493E00E94C411109247037CCFDF9180
:10127000CF911F910895FF920F931F93CF93DF9308
:10128000C2E0D0E001E010E082E196E0B2D3892B29
:1012900009F46EC082E196E0C5D3F82E682F8AE586
:1012A00093E00E9404128DE0F812EECF6AE573E03D
:1012B0008BE394E0DED761E084E40E94CB1467E521
:1012C00072E08AE593E00E941712882319F01092C9
:1012D000700326C06BE472E08AE593E00E94171267
:1012E000882351F081E08093700380937103109202
:1012F0009D0210929C0235C06FE372E08AE593E094
:101300000E941712882321F081E08093A202EDCF82
:1013100067E272E08AE593E00E941712882311F0D9
:1013200081E0E3CF6BE172E08AE593E00E9417125F
:10133000882341F081E08093710310939D02009314
:101340009C020FC063E372E08AE593E00E941712EB
:10135000882339F081E080937103D0939D02C0937C
:101360009C0269E072E08AE593E00E94C4118CCF90
:10137000DF91CF911F910F91FF9008950C94C419A4
:1013800060E081E20E94921460E082E20E94921486
:1013900060E083E20E94921460E084E20E94921472
:1013A00060E085E20E94921460E08BE30E94921458
:1013B00060E08CE30E94921460E08EE30E9492143D
:1013C00060E086E10E94921460E088E10E9492143D
:1013D00060E08FE10E94921460E088E20E94921423
:1013E00060E08DE10E94921460E08CE10E94921412
:1013F00060E087E30E94921460E088E30E94921408
:1014000061E08DE00E94921461E089E30E949214F1
:1014100061E08AE30E94921461E08FE20E949214DC
:1014200061E08DE20E94921461E080E30E949214D8
:1014300061E08BE20E94921461E08CE20E949214BF
:1014400061E08AE20E94921461E084E00E949214BA
:1014500061E08EE20E94921461E081E30E949214A6
:1014600061E08FE30E94921461E082E40E94921492
:1014700061E080E40E94921461E081E40E94921491
:1014800061E083E40E94921461E084E40C9492147D
:10149000CF92DF92EF92FF920F931F93CF93DF9340
:1014A00082E790E06BDFC82F83E790E067DFD82FFB
:1014B00084E790E063DFF82E88E790E05FDF182F85
:1014C00089E790E05BDF082F8AE790E057DF9AE03A
:1014D00009029001112494E61902200D311D1124F6
:1014E000280F311D87FD3A953093A8022093A7025B
:1014F0008AE0D802B001112494E6C902600D711D82
:1015000011246F0D711DF7FC7A957093AE026093F4
:10151000AD0280E090E00E9427166B017C012AE971
:1015200039E949E15FE30E94DD160E94FB157093E3
:10153000AC026093AB0223E333E343EB5FE3C70109
:10154000B6010E94DD160E94FB157093B0026093F5
:10155000AF0210920602DF91CF911F910F91FF9081
:10156000EF90DF90CF900895613298F42091DF03DF
:10157000243089F460939403FC0186E993E0DC0154
:101580002A2F281B261718F421912D93F9CF80E0DC
:10159000089581E0089582E0089585ED8093BC0070
:1015A0008091BC0084FDFCCF1092DF03089585EC90
:1015B0008093BC001092DF0308951F920F920FB624
:1015C0000F9211240BB60F922F933F934F935F937B
:1015D0006F937F938F939F93AF93BF93EF93FF93FB
:1015E0008091B900887F803609F49CC068F5883204
:1015F00009F45BC090F4803109F454C038F48823B6
:1016000009F4F3C0883009F44DC0F2C0883109F400
:101610004CC0803209F45DC0EBC0803409F468C06E
:1016200048F4803309F455C0883309F0E1C0809351
:101630007203A7C0803509F44FC0883509F45DC036
:10164000883409F0D5C0D3C0883909F4C4C0A8F4DF
:10165000883709F467C038F4883609F463C08037E6
:1016600009F460C0C5C0883809F4B5C0803909F4F0
:101670005FC0803809F0BCC05BC0803B09F483C008
:1016800038F4803A09F466C0883A09F47CC0B0C0E6
:10169000803C09F4A4C0883C09F4A1C0883B09F44B
:1016A00087C0A6C08091DE0310C09091B7038091DF
:1016B000B603981770F5E091B70381E08E0F809321
:1016C000B703F0E0E854FC4F80818093BB0085ECC9
:1016D00083C0809372038BC0E091B70381E08E0FCB
:1016E0008093B7038091BB00F0E0E854FC4F808307
:1016F0009091B7038091B6036BC0E091B70381E08E
:101700008E0F8093B7038091BB00F0E0E854FC4F4C
:1017100080838091DD0381116AC081E08093DC03C6
:1017200084EA5EC083E08093DF0310927303CFCF1F
:1017300080917303803208F04EC0E091730381E022
:101740008E0F809373038091BB00F0E0EC58FC4F48
:101750008083BDCF80917303803230F4E0917303B6
:10176000F0E0EC58FC4F108218DF6091730370E0DA
:10177000E091D803F091D90384E793E01995109292
:10178000730315DF35C084E08093DF031092950367
:1017900010929403E091DA03F091DB0319958091A4
:1017A0009403811105C081E0809394031092960305
:1017B000E091950381E08E0F80939503F0E0EA5667
:1017C000FC4F80818093BB0090919503809194039E
:1017D000981708F47CCF85E88093BC0009C085EC9D
:1017E0008093BC001092DF0303C010927203D5DE19
:1017F000FF91EF91BF91AF919F918F917F916F91E9
:101800005F914F913F912F910F900BBE0F900FBEA4
:101810000F901F90189580910F0490E02091100474
:10182000821B910908952091100480910F042817BC
:1018300050F4E22FF0E0EF5EFB4F808190E02F5FED
:101840002093100408958FEF9FEF0895E091100406
:1018500080910F04E81730F4F0E0EF5EFB4F8081D9
:1018600090E008958FEF9FEF08950895CF92DF9253
:10187000EF92FF920F931F93CF93DF937C01CB01E5
:101880008A012091EC03222389F0EB016B01C40E45
:10189000D51ECC15DD0561F06991D701ED91FC9164
:1018A0000190F081E02DC7011995F3CF642F5CDE24
:1018B000C801DF91CF911F910F91FF90EF90DF90C2
:1018C000CF900895CF93DF931F92CDB7DEB7698392
:1018D0002091EC032223D1F02091ED03203240F03F
:1018E00021E030E0FC013383228380E090E014C0EB
:1018F0008091EE03E82FF0E0E151FC4F9981908355
:101900008F5F8093EE038093ED0304C061E0CE010E
:1019100001962ADE81E090E00F90DF91CF9108954B
:10192000FC011382128248EE53E060E070E04483D1
:1019300055836683778381E792E09183808308955E
:1019400080EE93E0EDCF1F920F920FB60F9211240D
:101950000BB60F922F933F934F935F936F937F93A9
:101960008F939F93AF93BF93EF93FF93E0913104D5
:10197000F09132041995FF91EF91BF91AF919F9132
:101980008F917F916F915F914F913F912F910F9028
:101990000BBE0F900FBE0F901F9018951F920F92C5
:1019A0000FB60F9211240BB60F922F933F934F93C4
:1019B0005F936F937F938F939F93AF93BF93EF93B7
:1019C000FF93E0913604F09137041995FF91EF9160
:1019D000BF91AF919F918F917F916F915F914F9147
:1019E0003F912F910F900BBE0F900FBE0F901F9045
:1019F0001895FC01818D228D90E0805C9F4F821BA9
:101A000091098F7399270895FC01918D828D981704
:101A100031F0828DE80FF11D858D90E008958FEFF4
:101A20009FEF0895FC01918D828D981761F0828D52
:101A3000DF01A80FB11D5D968C91928D9F5F9F7302
:101A4000928F90E008958FEF9FEF089584EC9EE0D1
:101A5000892B39F080E090E0892B19F095D1811124
:101A600022C08FE69FE0892B39F08FEA98E0892B1E
:101A700019F035D281111AC08AE190E1892B39F031
:101A800080E090E0892B19F0D5D2811111C085EC4E
:101A900090E1892B89F08BE399E0892B69F075D36C
:101AA000811109C008950E940000DBCF58DBE4CF0C
:101AB0000E940000ECCFDFCB0895FC01848DDF0194
:101AC000A80FB11DA35ABF4F2C91848D90E00196B1
:101AD0008F739927848FA689B7892C93A089B189A0
:101AE0008C9180648C93938D848D981306C00288AA
:101AF000F389E02D80818F7D80830895CF93DF93DC
:101B0000EC01888D8823C1F0EA89FB89808185FDFD
:101B100005C0A889B9898C9186FD0EC00FB607FC57
:101B2000F5CF808185FFF2CFA889B9898C9185FF97
:101B3000EDCFCE01C2DFE8CFDF91CF910895CF92F4
:101B4000DF92FF920F931F93CF93DF931F92CDB736
:101B5000DEB76C0181E0D60158968C9358975B965E
:101B60009C915B975C968C915C97981307C05096FC
:101B7000ED91FC915197808185FD2DC0F601038D7B
:101B800010E00F5F1F4F0F731127F02EF601848DA9
:101B9000F81210C00FB607FCF9CFD6015096ED91A0
:101BA000FC915197808185FFF1CFC601698385DF64
:101BB0006981ECCF838DE80FF11DE35AFF4F6083FD
:101BC000D6015B960C935B975296ED91FC915397DF
:101BD000808180620CC0D6015696ED91FC9157979A
:101BE00060835096ED91FC91519780818064808351
:101BF00081E090E00F90DF91CF911F910F91FF90C6
:101C0000DF90CF900895BF92CF92DF92EF92FF9234
:101C1000CF93DF93EC016A017B01B22EE889F98949
:101C200082E08083411581EE580761057105A1F0BE
:101C300060E079E08DE390E0A70196010E945417DF
:101C400021503109410951095695479537952795F6
:101C5000211580E1380798F0E889F989108260E859
:101C600074E88EE190E0A70196010E94541721507C
:101C70003109410951095695479537952795EC85C6
:101C8000FD853083EE85FF852083188EEC89FD89E4
:101C9000B082EA89FB89808180618083EA89FB893F
:101CA000808188608083EA89FB8980818068808365
:101CB000EA89FB8980818F7D8083DF91CF91FF90BE
:101CC000EF90DF90CF90BF9008951F920F920FB6C4
:101CD0000F9211240BB60F922F938F939F93EF9334
:101CE000FF93E0914B04F0914C048081E09151040A
:101CF000F091520482FD12C09081809154048F5F54
:101D00008F7320915504821751F0E0915404F0E054
:101D1000E55CFB4F958F8093540401C08081FF9157
:101D2000EF919F918F912F910F900BBE0F900FBE4F
:101D30000F901F9018951F920F920FB60F921124BB
:101D40000BB60F922F933F934F935F936F937F93B5
:101D50008F939F93AF93BF93EF93FF938BE394E0A5
:101D6000ACDEFF91EF91BF91AF919F918F917F91E9
:101D70006F915F914F913F912F910F900BBE0F90FC
:101D80000FBE0F901F9018958BE394E032DE21E098
:101D9000892B09F420E0822F089510923E041092BE
:101DA0003D0488EE93E0A0E0B0E080933F04909380
:101DB0004004A0934104B093420481E892E09093E0
:101DC0003C0480933B0485EC90E09093480480931E
:101DD000470484EC90E090934A048093490480EC9B
:101DE00090E090934C0480934B0481EC90E09093AE
:101DF0004E0480934D0482EC90E0909350048093C5
:101E00004F0486EC90E0909352048093510410921A
:101E100054041092550410925604109257040895D9
:101E20001F920F920FB60F9211240BB60F922F93A1
:101E30008F939F93EF93FF93E091E804F091E9046F
:101E40008081E091EE04F091EF0482FD12C0908158
:101E50008091F1048F5F8F732091F204821751F00B
:101E6000E091F104F0E0E852FB4F958F8093F1048C
:101E700001C08081FF91EF919F918F912F910F90E1
:101E80000BBE0F900FBE0F901F9018951F920F92D0
:101E90000FB60F9211240BB60F922F933F934F93CF
:101EA0005F936F937F938F939F93AF93BF93EF93C2
:101EB000FF9388ED94E001DEFF91EF91BF91AF9128
:101EC0009F918F917F916F915F914F913F912F9152
:101ED0000F900BBE0F900FBE0F901F90189588EDBE
:101EE00094E087DD21E0892B09F420E0822F08951A
:101EF0001092DB041092DA0488EE93E0A0E0B0E0E8
:101F00008093DC049093DD04A093DE04B093DF049F
:101F100081E892E09093D9048093D8048DEC90E00E
:101F20009093E5048093E4048CEC90E09093E704B4
:101F30008093E60488EC90E09093E9048093E804B1
:101F400089EC90E09093EB048093EA048AEC90E0B3
:101F50009093ED048093EC048EEC90E09093EF046A
:101F60008093EE041092F1041092F2041092F304A4
:101F70001092F40408951F920F920FB60F9211243D
:101F80000BB60F922F938F939F93EF93FF93E09154
:101F90008505F09186058081E0918B05F0918C0597
:101FA00082FD12C0908180918E058F5F8F7320918A
:101FB0008F05821751F0E0918E05F0E0EB58FA4F53
:101FC000958F80938E0501C08081FF91EF919F9145
:101FD0008F912F910F900BBE0F900FBE0F901F90FF
:101FE00018951F920F920FB60F9211240BB60F92F5
:101FF0002F933F934F935F936F937F938F939F9311
:10200000AF93BF93EF93FF9385E795E056DDFF9184
:10201000EF91BF91AF919F918F917F916F915F9160
:102020004F913F912F910F900BBE0F900FBE0F90CD
:102030001F90189585E795E0DCDC21E0892B09F4F9
:1020400020E0822F0895109278051092770588EE8F
:1020500093E0A0E0B0E08093790590937A05A09397
:102060007B05B0937C0581E892E0909376058093A0
:10207000750585ED90E0909382058093810584ED50
:1020800090E0909384058093830580ED90E0909399
:1020900086058093850581ED90E090938805809377
:1020A000870582ED90E090938A058093890586EDFF
:1020B00090E090938C0580938B0510928E05109282
:1020C0008F05109290051092910508951F920F921E
:1020D0000FB60F9211240BB60F922F938F939F93ED
:1020E000EF93FF93E0912206F09123068081E09127
:1020F0002806F091290682FD12C0908180912B065E
:102100008F5F8F7320912C06821751F0E0912B0680
:10211000F0E0EE5EF94F958F80932B0601C0808131
:10212000FF91EF919F918F912F910F900BBE0F9088
:102130000FBE0F901F9018951F920F920FB60F921F
:1021400011240BB60F922F933F934F935F936F938E
:102150007F938F939F93AF93BF93EF93FF9382E10E
:1021600096E0ABDCFF91EF91BF91AF919F918F9182
:102170007F916F915F914F913F912F910F900BBE87
:102180000F900FBE0F901F90189582E196E031DC02
:1021900021E0892B09F420E0822F08951092150682
:1021A0001092140688EE93E0A0E0B0E0809316064B
:1021B00090931706A0931806B093190681E892E051
:1021C000909313068093120685E391E090931F0687
:1021D00080931E0684E391E090932106809320066D
:1021E00080E391E0909323068093220681E391E0BF
:1021F000909325068093240682E391E0909327062E
:102200008093260686E391E0909329068093280622
:1022100010922B0610922C0610922D0610922E066C
:102220000895CF92DF92EF92FF920F931F93CF9377
:10223000DF936C017A01EB01E60EF71E00E010E07F
:10224000CE15DF0561F06991D601ED91FC91019009
:10225000F081E02DC6011995080F191FF1CFC801B3
:10226000DF91CF911F910F91FF90EF90DF90CF9072
:102270000895DC01ED91FC91DB0114964D915C9188
:1022800015976D917C910280F381E02D1994FC01EA
:1022900080819181EDC6CF93DF93EC018881998194
:1022A000009709F0E5D6198218821D821C821B82D4
:1022B0001A82DF91CF9108950F931F93CF93DF93ED
:1022C000EC018B016F5F7F4F8881998160D7009708
:1022D00031F0998388831B830A8381E001C080E009
:1022E000DF91CF911F910F910895CF93DF93EC0170
:1022F00088819981892B29F08A819B81861797078C
:1023000058F4CE01D9DF882341F08C819D81892B3F
:1023100019F4E881F981108281E0DF91CF9108956D
:10232000EF92FF920F931F93CF93DF93EC017B010A
:102330008A01BA01DADF811103C0CE01ACDF07C028
:102340001D830C83B701888199810E94BD19CE013C
:10235000DF91CF911F910F91FF90EF900895FC01B5
:102360001182108213821282158214826115710506
:1023700051F0FB0101900020E9F7AF0141505109F4
:10238000461B570BCDCF0895CF93DF93EC0161151A
:10239000710559F0FB0101900020E9F7AF014150B0
:1023A0005109461B570BBCDF01C075DFCE01DF9121
:1023B000CF910895EF92FF920F931F93CF93DF93E6
:1023C000EC017B010C811D816115710511F480E028
:1023D00014C04115510581F0040F151FB80185DFA8
:1023E0008823A9F3288139818C819D81B701820FCF
:1023F000931FC3D71D830C8381E0DF91CF911F9181
:102400000F91FF90EF900895CF93DF931F921F924B
:10241000CDB7DEB769831A8241E050E0BE016F5F3D
:102420007F4FC8DF0F900F90DF91CF910895FC018F
:1024300024813581232B31F421E06115710599F058
:10244000FB0108C0FC01808191816115710531F4A7
:1024500021E0FC018081882331F004C085D721E090
:10246000892B09F020E0822F0895FC018481958159
:102470006817790720F480819181009729F41092E0
:10248000AF068FEA96E00895860F971F089580E0C3
:1024900090E008950895A9D0FDDF0E94FC01C6E2F6
:1024A000DDE00E945F022097E1F3D0DAFACF1F92BD
:1024B0000F920FB60F9211242F933F938F939F93F8
:1024C000AF93BF938091B1069091B206A091B306ED
:1024D000B091B4063091B00623E0230F2D3720F4DD
:1024E0000196A11DB11D05C026E8230F0296A11D6E
:1024F000B11D2093B0068093B1069093B206A093CD
:10250000B306B093B4068091B5069091B606A0913B
:10251000B706B091B8060196A11DB11D8093B5060E
:102520009093B606A093B706B093B806BF91AF914B
:102530009F918F913F912F910F900FBE0F901F9001
:1025400018952FB7F8946091B1067091B2068091FA
:10255000B3069091B4062FBF08953FB7F8948091C9
:10256000B5069091B606A091B706B091B80626B50B
:10257000A89B05C02F3F19F00196A11DB11D3FBFBB
:102580006627782F892F9A2F620F711D811D911D4B
:1025900042E0660F771F881F991F4A95D1F708956B
:1025A000CF92DF92EF92FF92CF93DF936B017C018A
:1025B000D4DFEB01C114D104E104F10479F048D275
:1025C000CCDF6C1B7D0B683E7340A0F381E0C81A22
:1025D000D108E108F108C851DC4FECCFDF91CF9171
:1025E000FF90EF90DF90CF900895789484B582604B
:1025F00084BD84B5816084BD85B5826085BD85B5A7
:10260000816085BDEEE6F0E0808181608083E1E855
:10261000F0E010828081826080838081816080838D
:10262000E0E8F0E0808181608083E1EBF0E0808190
:1026300084608083E0EBF0E0808181608083E1E969
:10264000F0E0808182608083808181608083E0E926
:10265000F0E0808181608083E1EAF0E08081826047
:102660008083808181608083E0EAF0E08081816006
:102670008083E1E2F1E080818260808380818160FB
:102680008083E0E2F1E0808181608083EAE7F0E02E
:10269000808184608083808182608083808181608A
:1026A00080838081806880831092C1000895863382
:1026B00008F0865320917B00982F9870277F922BEB
:1026C00090937B0087702091080290E4299F9001ED
:1026D0001124822B80937C0080917A008064809307
:1026E0007A0080917A0086FDFCCF8091780020915D
:1026F000790090E0922B08951F93CF93DF93182FCA
:10270000EB0161E00FD1209711F460E004C0CF3FEE
:10271000D10531F461E0812FDF91CF911F913BC151
:10272000E12FF0E0E659FE4F449150E0FA01319775
:10273000E231F10508F09AC0EF56FF4FD7C384B5D8
:10274000806884BDC7BD97C084B5806284BDC8BDA4
:1027500092C080918000806880938000D09389002F
:10276000C093880088C08091800080628093800040
:10277000D0938B00C0938A007EC0809180008860D7
:1027800080938000D0938D00C0938C0074C08091A2
:10279000B00080688093B000C093B3006CC080919B
:1027A000B00080628093B000C093B40064C0809198
:1027B0009000806880939000D0939900C093980017
:1027C0005AC080919000806280939000D0939B00CB
:1027D000C0939A0050C080919000886080939000D0
:1027E000D0939D00C0939C0046C08091A00080685B
:1027F0008093A0008091A0008F7B8093A000D09355
:10280000A900C093A80037C08091A0008062809387
:10281000A000D093AB00C093AA002DC08091A0006F
:1028200088608093A000D093AD00C093AC0023C01B
:1028300080912001806880932001D0932901C0936A
:10284000280119C080912001806280932001D093DB
:102850002B01C0932A010FC08091200188608093D2
:102860002001D0932D01C0932C0105C0C038D105A3
:102870000CF050CF4ACFDF91CF911F91089590E097
:10288000FC013197E231F10508F04BC0ED55FF4FE7
:102890002DC3809180008F7703C0809180008F7D51
:1028A00080938000089580918000877FF9CF84B560
:1028B0008F7702C084B58F7D84BD08958091B0006C
:1028C0008F7703C08091B0008F7D8093B000089512
:1028D000809190008F7707C0809190008F7D03C01A
:1028E00080919000877F8093900008958091A00050
:1028F0008F7707C08091A0008F7D03C08091A000DA
:10290000877F8093A0000895809120018F7707C072
:10291000809120018F7D03C080912001877F80936B
:1029200020010895CF93DF9390E0FC01E055FE4F26
:102930002491FC01EA50FE4F8491882349F190E0F4
:10294000880F991FFC01E059FD4FA591B4918A5A57
:102950009D4FFC01C591D4919FB7611108C0F894B7
:102960008C91209582238C93888182230AC06230C7
:1029700051F4F8948C91322F309583238C93888175
:10298000822B888304C0F8948C91822B8C939FBFF8
:10299000DF91CF9108950F931F93CF93DF931F92F1
:1029A000CDB7DEB7282F30E0F901E659FE4F84910C
:1029B000F901E055FE4F1491F901EA50FE4F0491E0
:1029C0000023C1F0882319F0698359DF6981E02F62
:1029D000F0E0EE0FFF1FEA5AFD4FA591B4919FB7AB
:1029E000F8948C91611103C01095812301C0812B53
:1029F0008C939FBF0F90DF91CF911F910F910895FE
:102A0000CF93DF93282F30E0F901E659FE4F8491F0
:102A1000F901E055FE4FD491F901EA50FE4FC491FF
:102A2000CC2389F081112BDFEC2FF0E0EE0FFF1F9C
:102A3000E45CFD4FA591B4912C912D2381E090E0B1
:102A400021F480E002C080E090E0DF91CF91089512
:102A500008955058BB27AA270ED071C162D130F01B
:102A600067D120F031F49F3F11F41EF457C10EF4EA
:102A7000E095E7FB4DC1E92F73D180F3BA176207E8
:102A800073078407950718F071F49EF58BC10EF457
:102A9000E0950B2EBA2FA02D0B01B90190010C016E
:102AA000CA01A0011124FF27591B99F0593F50F486
:102AB000503E68F11A16F040A22F232F342F4427DE
:102AC000585FF3CF469537952795A795F0405395D6
:102AD000C9F77EF41F16BA0B620B730B840BBAF0A6
:102AE0009150A1F0FF0FBB1F661F771F881FC2F711
:102AF0000EC0BA0F621F731F841F48F48795779525
:102B00006795B795F7959E3F08F0B3CF9395880FDB
:102B100008F09927EE0F9795879508950CD00FC16F
:102B200007D140F0FED030F021F45F3F19F0F0C043
:102B3000511139C1F3C014D198F39923C9F3552326
:102B4000B1F3951B550BBB27AA27621773078407A0
:102B500038F09F5F5F4F220F331F441FAA1FA9F356
:102B600033D00E2E3AF0E0E830D091505040E69548
:102B7000001CCAF729D0FE2F27D0660F771F881FA9
:102B8000BB1F261737074807AB07B0E809F0BB0B98
:102B9000802DBF01FF2793585F4F2AF09E3F5105BC
:102BA00068F0B6C000C15F3FECF3983EDCF3869559
:102BB00077956795B795F7959F5FC9F7880F911D32
:102BC0009695879597F90895E1E0660F771F881F1E
:102BD000BB1F621773078407BA0720F0621B730BD1
:102BE000840BBA0BEE1F88F7E095089504D0689423
:102BF000B111D9C00895BCD088F09F5790F0B92F7B
:102C00009927B751A0F0D1F0660F771F881F991F41
:102C10001AF0BA95C9F712C0B13081F0C3D0B1E053
:102C20000895C0C0672F782F8827B85F39F0B93F63
:102C3000CCF3869577956795B395D9F73EF4909543
:102C40008095709561957F4F8F4F9F4F0895E894C1
:102C500009C097FB3EF490958095709561957F4FE4
:102C60008F4F9F4F9923A9F0F92F96E9BB27939592
:102C7000F695879577956795B795F111F8CFFAF4A2
:102C8000BB0F11F460FF1BC06F5F7F4F8F4F9F4FD3
:102C900016C0882311F096E911C0772321F09EE831
:102CA000872F762F05C0662371F096E8862F70E097
:102CB00060E02AF09A95660F771F881FDAF7880F71
:102CC0009695879597F90895990F0008550FAA0BC7
:102CD000E0E8FEEF16161706E807F907C0F012162F
:102CE0001306E407F50798F0621B730B840B950B32
:102CF00039F40A2661F0232B242B252B21F4089587
:102D00000A2609F4A140A6958FEF811D811D089523
:102D100097F99F6780E870E060E008959FEF80EC8E
:102D2000089500240A941616170618060906089531
:102D300000240A9412161306140605060895092E97
:102D40000394000C11F4882352F0BB0F40F4BF2B06
:102D500011F460FF04C06F5F7F4F8F4F9F4F089546
:102D600057FD9058440F551F59F05F3F71F047953C
:102D7000880F97FB991F61F09F3F79F08795089521
:102D8000121613061406551FF2CF4695F1DF08C040
:102D9000161617061806991FF1CF8695710561055D
:102DA00008940895E894BB2766277727CB0197F905
:102DB00008958ADF08F48FEF08950BD0C0CFB1DFFC
:102DC00028F0B6DF18F0952309F0A2CFA7CF112481
:102DD000EACFC6DFA0F3959FD1F3950F50E0551FC2
:102DE000629FF001729FBB27F00DB11D639FAA2760
:102DF000F00DB11DAA1F649F6627B00DA11D661FAF
:102E0000829F2227B00DA11D621F739FB00DA11DCF
:102E1000621F839FA00D611D221F749F3327A00D89
:102E2000611D231F849F600D211D822F762F6A2F25
:102E300011249F5750408AF0E1F088234AF0EE0FAA
:102E4000FF1FBB1F661F771F881F91505040A9F7B7
:102E50009E3F510570F05CCFA6CF5F3FECF3983EEC
:102E6000DCF3869577956795B795F795E7959F5F1E
:102E7000C1F7FE2B880F911D9695879597F90895B8
:102E8000AA1BBB1B51E107C0AA1FBB1FA617B70790
:102E900010F0A61BB70B881F991F5A95A9F78095AC
:102EA0009095BC01CD010895A1E21A2EAA1BBB1B6F
:102EB000FD010DC0AA1FBB1FEE1FFF1FA217B30706
:102EC000E407F50720F0A21BB30BE40BF50B661F1C
:102ED000771F881F991F1A9469F7609570958095E0
:102EE00090959B01AC01BD01CF010895EE0FFF1F2E
:102EF0000590F491E02D19940790F691E02D199426
:102F0000EF920F931F93CF93DF93E80147FF02C027
:102F100034E101C034E0E42FFF27E7FDF095F7FF2F
:102F200003C0F195E195F109E32E022F2E2FAE019A
:102F300041D2CE01DF91CF911F910F91EF90089573
:102F4000CF93DF938230910510F482E090E0E0911E
:102F5000BB06F091BC0620E030E0A0E0B0E0309786
:102F600039F14081518148175907B8F0481759077E
:102F700071F482819381109729F013969C938E931C
:102F800012972CC09093BC068093BB0627C02115D6
:102F9000310531F04217530718F0A901DB0101C0D8
:102FA000EF019A01BD01DF010280F381E02DD7CF4F
:102FB00021153105F9F0281B390B2430310580F437
:102FC0008A819B816115710521F0FB0193838283C6
:102FD00004C09093BC068093BB06FE01329644C0A9
:102FE000FE01E20FF31F819391932250310939833F
:102FF00028833AC02091B9063091BA06232B41F4B8
:1030000020910202309103023093BA062093B90650
:1030100020910002309101022115310541F42DB7B4
:103020003EB74091040250910502241B350BE091FC
:10303000B906F091BA06E217F307A0F42E1B3F0B76
:103040002817390778F0AC014E5F5F4F241735071A
:1030500048F04E0F5F1F5093BA064093B906819314
:10306000919302C0E0E0F0E0CF01DF91CF910895AD
:10307000CF93DF93009709F487C0FC013297138246
:103080001282C091BB06D091BC06209781F42081AA
:103090003181280F391F8091B9069091BA068217A5
:1030A000930779F5F093BA06E093B9066DC0DE0197
:1030B00020E030E0AE17BF0750F412964D915C91BE
:1030C00013979D014115510509F1DA01F3CFB3833F
:1030D000A28340815181840F951F8A179B0771F449
:1030E0008D919C911197840F951F029691838083F7
:1030F00012968D919C9113979383828321153105AC
:1031000029F4F093BC06E093BB063EC0D9011396A8
:10311000FC93EE9312974D915D91A40FB51FEA17A2
:10312000FB0779F480819181840F951F0296D90164
:1031300011969C938E938281938113969C938E9388
:103140001297E0E0F0E08A819B81009719F0FE0180
:10315000EC01F9CFCE01029628813981820F931FAD
:103160002091B9063091BA062817390769F43097CB
:1031700029F41092BC061092BB0602C01382128280
:10318000D093BA06C093B906DF91CF9108956F929C
:103190007F928F929F92AF92BF92CF92DF92EF92E7
:1031A000FF920F931F93CF93DF93EC01CB012097F6
:1031B00079F4DF91CF911F910F91FF90EF90DF9005
:1031C000CF90BF90AF909F908F907F906F90B8CE30
:1031D000FE01E60FF71F9E0122503109E217F307A7
:1031E00008F4A8C0D9010D911C9111970617170773
:1031F000B0F00530110508F49BC0A80144505109F6
:103200004617570708F494C002501109061B170B04
:10321000019311936D937C93CF012ADF89C05B01E9
:10322000A01AB10A4E01800E911EA091BB06B0916A
:10323000BC06612C712C60E070E0109709F449C065
:10324000A815B905C9F5ED90FC901197670142E00A
:10325000C40ED11CCA14DB0478F147018A189B08FC
:10326000640142E0C40ED11C1296BC9012971396D2
:10327000AC91B5E0CB16D10440F0B282A383918229
:103280008082D9018D939C9309C00E5F1F4F0E0D54
:103290001F1DF90111830083EB2DFA2F61157105B4
:1032A00031F0DB011396FC93EE93129741C0F0933B
:1032B000BC06E093BB063CC06D917C9111976616ED
:1032C000770608F43B01BD0112960D90BC91A02D2C
:1032D000B4CF6091B9067091BA0668157905E9F422
:1032E00068167906D0F44091000250910102411510
:1032F000510541F44DB75EB760910402709105022B
:10330000461B570BE417F507A8F4F093BA06E093B1
:10331000B906F901918380830BC012DE7C0100970E
:1033200049F0A801BE0117D0CE01A2DEC70104C03A
:10333000CE0102C080E090E0DF91CF911F910F910C
:10334000FF90EF90DF90CF90BF90AF909F908F90C5
:103350007F906F900895FB01DC0102C001900D92F7
:1033600041505040D8F70895FB01DC018D91019048
:1033700080190110D9F3990B0895FB01DC0101902C
:103380000D920020E1F70895F999FECF92BD81BD1D
:10339000F89A992780B50895262FF999FECF1FBA7C
:1033A00092BD81BD20BD0FB6F894FA9AF99A0FBE6E
:1033B000019608956F927F929F92AF92BF92CF92A3
:1033C000DF92EF92FF920F931F93CF93DF93CDB7CE
:1033D000DEB729970FB6F894DEBF0FBECDBF6A01E6
:1033E000B22E102F0C3320F4FF24F394F00E02C001
:1033F0004CE3F42E0F2D27E0AE014F5F5F4F57D106
:103400007981272F2970213031F0E1FC06C0E0FCE2
:1034100006C060E005C06DE203C06BE201C060E27F
:10342000AE2DA07173FF36C0662311F084E001C099
:1034300083E08B1510F4B81A01C0B12CA1110BC098
:10344000F6018B2D90E2882319F091938150FBCFE8
:10345000CB0CD11CB12C662331F0F60160839601B0
:103460002F5F3F4F6901C6010396E2FE05C02EE4BF
:10347000F601208331E404C02EE6F601208331E614
:1034800031832283FC012B2D30E22223F1F1319391
:103490002150FBCF72FF40C0662311F084E001C0D1
:1034A00083E08B1510F4B81A01C0B12CA1110BC028
:1034B000F6018B2D90E2882319F091938150FBCF78
:1034C000CB0CD11CB12C662331F0F6016083960140
:1034D0002F5F3F4F6901C6010396E2FE07C029E452
:1034E000F60120832EE4218326E406C029E6F601B6
:1034F00020832EE6218326E62283FC012B2D30E259
:10350000222319F031932150FBCFFC01EB0DF11D6B
:1035100010828EEF9FEFB7C0B1E0611101C0B0E043
:103520004B2F50E01816190624F49C012F5F3F4FD3
:1035300002C021E030E0240F351F112329F0412F74
:1035400050E04F5F5F4F02C040E050E0420F531F1A
:103550002B2D30E04217530714F4B41A01C0B12CDC
:103560002E2D287159F4F6012B2D30E2222319F06B
:1035700031932150FBCFCB0CD11CB12CBB2331F0AC
:10358000F601608396012F5F3F4F6901A1110BC0C7
:10359000F6012B2D30E3222319F031932150FBCF7C
:1035A000CB0CD11CB12CF80E0A81372F3071A32E11
:1035B00074FF03C0013309F4FA941F142CF42F2D67
:1035C000293018F028E001C021E0682F392F97FF3B
:1035D00002C060E030E0462F532F612C712C3EE298
:1035E000932EBC01621B71099B01DC01A41BB50B6E
:1035F000E1E0F0E0EC0FFD1FAE0FBF1FE12EF12C5C
:10360000F194E194F1084F3FFFEF5F0731F4F601C9
:103610009082B6016F5F7F4F6B01841795074CF066
:103620002417350734F4BD01660D771DFB011181A8
:1036300001C010E341505109FFEF6F1A7F0AB60134
:103640006F5F7F4F4E155F0524F0F60110836B010D
:10365000DACF4817590739F4063320F4053319F443
:10366000A11001C011E3F6011083FB018B2D90E244
:10367000882319F091938150FBCFFB01EB0DF11DD5
:10368000108280E090E029960FB6F894DEBF0FBE5E
:10369000CDBFDF91CF911F910F91FF90EF90DF9001
:1036A000CF90BF90AF909F907F906F9008952830FB
:1036B00008F027E03327DA01990F311D87FD91606B
:1036C00000966105710539F432602E5F3D9330E359
:1036D0002A95E1F708959F3F30F080387105610524
:1036E00009F03C5F3C5F3D93913008F08068911D8C
:1036F000DF93CF931F930F93FF92EF92192F987F31
:103700009695E92F96959695E90FFF27EC51FD4F79
:1037100099273327EE24FF24A701E7010590089499
:10372000079428F4360FE71EF81E491F511D660F37
:10373000771F881F991F0694A1F70590079428F416
:10374000E70EF81E491F561FC11D770F881F991FCE
:10375000661F0694A1F70590079428F4F80E491FF8
:10376000561FC71FD11D880F991F661F771F06940C
:10377000A1F70590079420F4490F561FC71FD81FC3
:10378000990F661F771F881F0694A9F784911095DB
:10379000177041F0D695C79557954795F794E794DC
:1037A0001A95C1F7EAE8F2E0689415901591359101
:1037B0006591959105907FE27395E118F10A430BAD
:1037C000560BC90BD009C0F7E10CF11E431F561F61
:1037D000C91FD01D7EF4703311F48A95E6CFE894AA
:1037E000015030F0080F0AF40027021708F4202FC8
:1037F0002395022F7A3328F079E37D932A95E9F710
:1038000010C07D932A9589F606949795679537950C
:1038100017951794E118F10A430B560BC90BD00901
:1038200098F023957E9173957A3308F070E37C933A
:103830002013B8F77E9170617D9330F0839571E32A
:103840007D9370E32A95E1F71124EF90FF900F919B
:103850001F91CF91DF91992787FD9095089513E0EF
:10386000C2E9D3E000E005C022970109FE010BBFC9
:1038700043DBC439D10780E00807B1F7F894FFCFE4
:103880000000BD06800001010100303132333435C3
:103890003637383941424344454600414743535047
:1038A000444E4F524D0D00414743535044534C4FEB
:1038B000570D004147435F5350445F55500D004141
:1038C00047434D414E53544F500D004147435F42D3
:1038D00047455F444E0D004147435F4247455F55B2
:1038E000500D0002555044525103000000000000EA
:1038F00000620C360C0B0C130C260C350C0000006F
:0E390000009F0D1111F90C120D040D7E0D002B
:00000001FF
